:100000000C943E000C945B000C945B000C945B0021
:100010000C945B000C945B000C945B000C945B00F4
:100020000C945B000C945B000C945B000C945B00E4
:100030000C945B000C94C51E0C945B000C945B004C
:100040000C945B000C945B000C94A8010C945B0076
:100050000C945B000C945B000C945B000C945B00B4
:100060000C94F5010C945B000C945B000C945B0009
:100070000C945B000C945B000C945B0011241FBE7D
:10008000CFEFD8E0DEBFCDBF11E0A0E0B1E0E2E00D
:10009000F3E402C005900D92AC32B107D9F717E036
:1000A000ACE2B1E001C01D92AD3EB107E1F70E94A4
:1000B00086080C947F210C940000AF92CF92EF92AF
:1000C0000F9380932C0160932D0140932E01209378
:1000D0002F0100933001E0923101C0923201A092D1
:1000E00033010F91EF90CF90AF90089581E080930E
:1000F0002C0110922D0180932E0180932F0180936B
:1001000030018093310180933201109233010895C0
:1001100010922C0110922D0110922E0110922F019D
:100120001092300181E0809331018093320110926E
:100130003301089510922C0181E080932D0180936A
:100140002E0180932F018093300180933101109212
:10015000320110923301089510922C0181E08093B6
:100160002D0110922E0180932F01809330018093F6
:1001700031018093320110923301089581E0809320
:100180002C0180932D0110922E0110922F011092BC
:100190003001809331018093320110923301089530
:1001A00081E080932C0180932D0110922E01809389
:1001B0002F0180933001109231018093320110920F
:1001C0003301089581E080932C0180932D01809369
:1001D0002E0180932F018093300110923101809382
:1001E000320110923301089510922C0110922D01CA
:1001F00010922E0110922F0181E0809330018093A4
:1002000031018093320110923301089581E080938F
:100210002C0180932D0180932E0180932F018093D8
:10022000300180933101809332011092330108959F
:1002300081E080932C0180932D0110922E018093F8
:100240002F0180933001809331018093320110920D
:100250003301089510922C0110922D0110922E015D
:1002600010922F0110923001109231011092320140
:1002700081E080933301089510922C0110922D019A
:1002800010922E0110922F01109230011092310124
:100290001092320181E080933301089580B18695F8
:1002A000869580958170089580B18695809581703E
:1002B000089580B18695869586958095817008957C
:1002C00085B5846085BD81E080936E007894089543
:1002D00085B58B7F85BD089581B1806F81B981B16E
:1002E000817F81B982B18E6082B9209A8FEF87B900
:1002F0008AB1806F8AB90895EAE7F0E0808185606D
:100300008083ACE7B0E08C9180648C9380818860BE
:1003100080838081806280838081806880837894FC
:10032000EAE7F0E080818064808381E08093DA07EF
:100330000895EAE7F0E080818064808380818860AE
:1003400080830895ECE7F0E08081806880830895E1
:100350001F920F920FB60F9211242F933F938F93FA
:100360009F93029914C020910F013091100186E0F3
:100370002034380760F480913C0190913D01009752
:10038000A9F08837910518F02F5F3F4F17C00199EA
:100390001AC020910F01309110012115310599F0FB
:1003A00080913C0190913D01009719F481E090E02B
:1003B0000FC08837910538F021503040309310013C
:1003C00020930F0104C080913C0190913D01019662
:1003D00090933D0180933C019F918F913F912F918C
:1003E0000F900FBE0F901F9018951F920F920FB68F
:1003F0000F9211248F939F938091780090917900B0
:100400009093E0078093DF0781E08093DA079F9164
:100410008F910F900FBE0F901F9018952F923F92C3
:100420004F925F926F927F928F929F92AF92BF9204
:10043000CF92DF92EF92FF920F931F93DF93CF93B0
:1004400000D00F92CDB7DEB7162FF42ED22EC98270
:10045000AA828B8253985B98509A5898282E3324FE
:10046000F101EE0FFF1FEF5EFE4F0190F081E02DD6
:10047000099580912C01882311F0149A01C01498D9
:1004800080913001882311F0159A01C01598412EF2
:100490005524F201EE0FFF1FEF5EFE4F0190F08139
:1004A000E02D099580912C01882311F0169A01C046
:1004B000169880913001882311F0179A01C017987F
:1004C0006F2C7724F301EE0FFF1FEF5EFE4F0190BC
:1004D000F081E02D099580912C01882311F0479A35
:1004E00001C0479880913001882311F0469A01C0DD
:1004F00046988D2C9924F401EE0FFF1FEF5EFE4FFE
:100500000190F081E02D099580912C01882311F054
:10051000459A01C0459880913001882311F0449A92
:1005200001C04498A02EBB24F501EE0FFF1FEF5E23
:10053000FE4F0190F081E02D099580912C018823D8
:1005400011F05C9A01C05C9880913001882311F011
:100550005D9A01C05D98CE2CDD24F601EE0FFF1FE1
:10056000EF5EFE4F0190F081E02D099580912C0106
:10057000882311F05E9A01C05E9880913001882333
:1005800011F05F9A01C05F988981E82EFF24F7017E
:10059000EE0FFF1FEF5EFE4F0190F081E02D0995F9
:1005A00080912C01882311F0409A01C040988091DD
:1005B0003001882311F0419A01C041989A81092F96
:1005C00010E0F801EE0FFF1FEF5EFE4F0190F0818B
:1005D000E02D099580912C01882311F0429A01C0E9
:1005E000429880913001882311F0439A01C04398CA
:1005F00080E49FE10197F1F750985898519A5998E3
:10060000F101EE0FFF1FEF5EFE4F0190F081E02D34
:10061000099580912D01882311F0149A01C0149836
:1006200080913101882311F0159A01C01598F201CB
:10063000EE0FFF1FEF5EFE4F0190F081E02D099558
:1006400080912D01882311F0169A01C0169880918F
:100650003101882311F0179A01C01798F301EE0FAA
:10066000FF1FEF5EFE4F0190F081E02D0995809114
:100670002D01882311F0479A01C0479880913101DC
:10068000882311F0469A01C04698F401EE0FFF1F2F
:10069000EF5EFE4F0190F081E02D099580912D01D4
:1006A000882311F0459A01C0459880913101882333
:1006B00011F0449A01C04498F501EE0FFF1FEF5E60
:1006C000FE4F0190F081E02D099580912D01882346
:1006D00011F05C9A01C05C9880913101882311F07F
:1006E0005D9A01C05D98F601EE0FFF1FEF5EFE4FB1
:1006F0000190F081E02D099580912D01882311F062
:100700005E9A01C05E9880913101882311F05F9A52
:1007100001C05F98F701EE0FFF1FEF5EFE4F0190E3
:10072000F081E02D099580912D01882311F0409AE8
:1007300001C0409880913101882311F0419A01C095
:100740004198F801EE0FFF1FEF5EFE4F0190F08120
:10075000E02D099580912D01882311F0429A01C066
:10076000429880913101882311F0439A01C0439847
:1007700080E49FE10197F1F751985998529A5A985D
:10078000F101EE0FFF1FEF5EFE4F0190F081E02DB3
:10079000099580912E01882311F0149A01C01498B4
:1007A00080913201882311F0159A01C01598F20149
:1007B000EE0FFF1FEF5EFE4F0190F081E02D0995D7
:1007C00080912E01882311F0169A01C0169880910D
:1007D0003201882311F0179A01C01798F301EE0F28
:1007E000FF1FEF5EFE4F0190F081E02D0995809193
:1007F0002E01882311F0479A01C047988091320159
:10080000882311F0469A01C04698F401EE0FFF1FAD
:10081000EF5EFE4F0190F081E02D099580912E0151
:10082000882311F0459A01C04598809132018823B0
:1008300011F0449A01C04498F501EE0FFF1FEF5EDE
:10084000FE4F0190F081E02D099580912E018823C3
:1008500011F05C9A01C05C9880913201882311F0FC
:100860005D9A01C05D98F601EE0FFF1FEF5EFE4F2F
:100870000190F081E02D099580912E01882311F0DF
:100880005E9A01C05E9880913201882311F05F9AD0
:1008900001C05F98F701EE0FFF1FEF5EFE4F019062
:1008A000F081E02D099580912E01882311F0409A66
:1008B00001C0409880913201882311F0419A01C013
:1008C0004198F801EE0FFF1FEF5EFE4F0190F0819F
:1008D000E02D099580912E01882311F0429A01C0E4
:1008E000429880913201882311F0439A01C04398C5
:1008F00080E49FE10197F1F752985A98539A5B98D8
:10090000F101EE0FFF1FEF5EFE4F0190F081E02D31
:10091000099580912F01882311F0149A01C0149831
:1009200080913301882311F0159A01C01598F201C6
:10093000EE0FFF1FEF5EFE4F0190F081E02D099555
:1009400080912F01882311F0169A01C0169880918A
:100950003301882311F0179A01C01798F301EE0FA5
:10096000FF1FEF5EFE4F0190F081E02D0995809111
:100970002F01882311F0479A01C0479880913301D5
:10098000882311F0469A01C04698F401EE0FFF1F2C
:10099000EF5EFE4F0190F081E02D099580912F01CF
:1009A000882311F0459A01C045988091330188232E
:1009B00011F0449A01C04498F501EE0FFF1FEF5E5D
:1009C000FE4F0190F081E02D099580912F01882341
:1009D00011F05C9A01C05C9880913301882311F07A
:1009E0005D9A01C05D98F601EE0FFF1FEF5EFE4FAE
:1009F0000190F081E02D099580912F01882311F05D
:100A00005E9A01C05E9880913301882311F05F9A4D
:100A100001C05F98F701EE0FFF1FEF5EFE4F0190E0
:100A2000F081E02D099580912F01882311F0409AE3
:100A300001C0409880913301882311F0419A01C090
:100A40004198F801EE0FFF1FEF5EFE4F0190F0811D
:100A5000E02D099580912F01882311F0429A01C061
:100A6000429880913301882311F0439A01C0439842
:100A7000AB81AA2349F00E942A0180913301882387
:100A800011F0449A01C044980E943C0180913301C6
:100A9000882319F0179A5F9A02C017985F9880E42C
:100AA0009FE10197F1F753985B98509A589AF1019A
:100AB000EE0FFF1FEF5EFE4F0190F081E02D0995D4
:100AC00080912C01882311F0149801C0149A809110
:100AD0003001882311F0159801C0159AF201EE0F2C
:100AE000FF1FEF5EFE4F0190F081E02D0995809190
:100AF0002C01882311F0169801C0169A80913001BC
:100B0000882311F0179801C0179AF301EE0FFF1F09
:100B1000EF5EFE4F0190F081E02D099580912C0150
:100B2000882311F0479801C0479A809130018823AB
:100B300011F0469801C0469AF401EE0FFF1FEF5ED8
:100B4000FE4F0190F081E02D099580912C018823C2
:100B500011F0459801C0459A80913001882311F029
:100B6000449801C0449AF501EE0FFF1FEF5EFE4F5F
:100B70000190F081E02D099580912C01882311F0DE
:100B80005C9801C05C9A80913001882311F05D98D7
:100B900001C05D9AF601EE0FFF1FEF5EFE4F019060
:100BA000F081E02D099580912C01882311F05E9849
:100BB00001C05E9A80913001882311F05F9801C0D6
:100BC0005F9AF701EE0FFF1FEF5EFE4F0190F0817D
:100BD000E02D099580912C01882311F0409801C0E7
:100BE000409A80913001882311F0419801C0419AC8
:100BF000F801EE0FFF1FEF5EFE4F0190F081E02D38
:100C0000099580912C01882311F0429801C0429AE5
:100C100080913001882311F0439801C0439A80E409
:100C20009FE10197F1F750985898519A599AF1011C
:100C3000EE0FFF1FEF5EFE4F0190F081E02D099552
:100C400080912D01882311F0149801C0149A80918D
:100C50003101882311F0159801C0159AF201EE0FA9
:100C6000FF1FEF5EFE4F0190F081E02D099580910E
:100C70002D01882311F0169801C0169A8091310138
:100C8000882311F0179801C0179AF301EE0FFF1F88
:100C9000EF5EFE4F0190F081E02D099580912D01CE
:100CA000882311F0479801C0479A80913101882329
:100CB00011F0469801C0469AF401EE0FFF1FEF5E57
:100CC000FE4F0190F081E02D099580912D01882340
:100CD00011F0459801C0459A80913101882311F0A7
:100CE000449801C0449AF501EE0FFF1FEF5EFE4FDE
:100CF0000190F081E02D099580912D01882311F05C
:100D00005C9801C05C9A80913101882311F05D9854
:100D100001C05D9AF601EE0FFF1FEF5EFE4F0190DE
:100D2000F081E02D099580912D01882311F05E98C6
:100D300001C05E9A80913101882311F05F9801C053
:100D40005F9AF701EE0FFF1FEF5EFE4F0190F081FB
:100D5000E02D099580912D01882311F0409801C064
:100D6000409A80913101882311F0419801C0419A45
:100D7000F801EE0FFF1FEF5EFE4F0190F081E02DB6
:100D8000099580912D01882311F0429801C0429A63
:100D900080913101882311F0439801C0439A80E487
:100DA0009FE10197F1F751985998529A5A9AF10197
:100DB000EE0FFF1FEF5EFE4F0190F081E02D0995D1
:100DC00080912E01882311F0149801C0149A80910B
:100DD0003201882311F0159801C0159AF201EE0F27
:100DE000FF1FEF5EFE4F0190F081E02D099580918D
:100DF0002E01882311F0169801C0169A80913201B5
:100E0000882311F0179801C0179AF301EE0FFF1F06
:100E1000EF5EFE4F0190F081E02D099580912E014B
:100E2000882311F0479801C0479A809132018823A6
:100E300011F0469801C0469AF401EE0FFF1FEF5ED5
:100E4000FE4F0190F081E02D099580912E018823BD
:100E500011F0459801C0459A80913201882311F024
:100E6000449801C0449AF501EE0FFF1FEF5EFE4F5C
:100E70000190F081E02D099580912E01882311F0D9
:100E80005C9801C05C9A80913201882311F05D98D2
:100E900001C05D9AF601EE0FFF1FEF5EFE4F01905D
:100EA000F081E02D099580912E01882311F05E9844
:100EB00001C05E9A80913201882311F05F9801C0D1
:100EC0005F9AF701EE0FFF1FEF5EFE4F0190F0817A
:100ED000E02D099580912E01882311F0409801C0E2
:100EE000409A80913201882311F0419801C0419AC3
:100EF000F801EE0FFF1FEF5EFE4F0190F081E02D35
:100F0000099580912E01882311F0429801C0429AE0
:100F100080913201882311F0439801C0439A80E404
:100F20009FE10197F1F752985A98539A5B9A220CD5
:100F3000331C81E191E0280E391ED101ED91FC9125
:100F4000099580912F01882311F0149801C0149AFB
:100F500080913301882311F0159801C0159A440C33
:100F6000551C81E191E0480E591ED201ED91FC9192
:100F7000099580912F01882311F0169801C0169AC7
:100F800080913301882311F0179801C0179A660CDD
:100F9000771C81E191E0680E791ED301ED91FC91FF
:100FA000099580912F01882311F0479801C0479A35
:100FB00080913301882311F0469801C0469A880C2D
:100FC000991C81E191E0880E991ED401ED91FC916C
:100FD000099580912F01882311F0459801C0459A09
:100FE00080913301882311F0449801C0449AAA0CDF
:100FF000BB1C81E191E0A80EB91ED501ED91FC91D9
:10100000099580912F01882311F05C9801C05C9AAA
:1010100080913301882311F05D9801C05D9ACC0C5A
:10102000DD1C81E191E0C80ED91ED601ED91FC9145
:10103000099580912F01882311F05E9801C05E9A76
:1010400080913301882311F05F9801C05F9AEE0C04
:10105000FF1C81E191E0E80EF91ED701ED91FC91B2
:10106000099580912F01882311F0409801C0409A82
:1010700080913301882311F0419801C0419A000FFB
:10108000111F0F5E1E4FD801ED91FC9109958091C3
:101090002F01882311F0429801C0429A80913301B8
:1010A000882311F0439801C0439ABB81BB2349F0C8
:1010B0000E942A0180913301882311F0449801C0D5
:1010C000449A0E943C0180913301882319F01798BB
:1010D0005F9802C0179A5F9A80E49FE10197F1F749
:1010E0000F900F900F90CF91DF911F910F91FF9074
:1010F000EF90DF90CF90BF90AF909F908F907F90B8
:101100006F905F904F903F902F900895EF92FF92D5
:101110000F930E946C010E947C0181E060E043E03B
:101120000E94011B9093E2078093E107009739F03A
:1011300060E070E040E050E020E00E943519289A1D
:1011400088EE93E020E931E0F9013197F1F701975A
:10115000D9F789E29AE060E071E040E550E020E0F4
:1011600030E001E0EE24FF240E946B1487E599E053
:1011700064E071E040E550E020E030E00E946B1454
:1011800082ED98E068E071E040E550E020E030E07A
:101190000E946B140E946D1580E090E00F91FF900B
:1011A000EF9008951F93CF93DF9311E0C0E9D1E052
:1011B0008091E1079091E20761E070E00E94E01900
:1011C000409140015091410120910F013091100157
:1011D0002417350718F4109355012898029916C062
:1011E00080915401882391F41093540186E02034B7
:1011F000380730F42F5F3F4F3093100120930F01D9
:1012000085B5846085BD10936E007894019917C0F0
:1012100080915401882399F41093540180910F0117
:1012200090911001009729F00197909310018093FD
:101230000F0185B5846085BD10936E007894039985
:1012400017C080915401882399F480910F019091E7
:1012500010014817590760F410935401109255017A
:10126000289A88EE93E0FE013197F1F70197D9F7BC
:10127000019B0AC015C01092540110923D011092BA
:101280003C0185B58B7F85BD8091E1079091E20798
:1012900060E070E040E050E020E00E94351988CF27
:1012A000029BF2CF80915401882329F7EDCF8F92D2
:1012B000AF92CF92EF920F931F93CF93DF9311E0F2
:1012C0008091E1079091E20761E070E00E94E019EF
:1012D000C0914001D0914101E0910F01F0911001C6
:1012E000EC17FD0718F4109355012898CF016AE018
:1012F00070E00E946221A82E8093EB079093EC0788
:10130000CF016AE070E00E946221CB016AE070E0E8
:101310000E946221C82E8093E3079093E407CF01D7
:1013200064E670E00E946221CB016AE070E00E94F6
:101330006221E82E8093D8079093D907CF0168EEF9
:1013400073E00E946221CB016AE070E00E9462219A
:10135000082F8093E9079093EA0720913E0130918E
:101360003F012031310508F056C080914201909133
:1013700043018C0F9D1F90934301809342012F30B6
:10138000310509F048C09C0144E0369527954A95FF
:10139000E1F73093430120934201E217F30718F479
:1013A000109355012898C9016AE070E00E946221FB
:1013B0009093E6078093E507C9016AE070E00E9418
:1013C0006221CB016AE070E00E9462219093DC0709
:1013D0008093DB07C90164E670E00E946221CB01C3
:1013E0006AE070E00E9462219093DE078093DD073F
:1013F000C90168EE73E00E946221CB016AE070E0EF
:101400000E9462219093E8078093E70710923F01C2
:1014100010923E0106C02F5F3F4F30933F01209353
:101420003E018091E7076091DD074091DB07209145
:10143000E507809055010E940E028091E10790918E
:10144000E20760E070E040E050E020E00E943519E3
:1014500037CFDF920F93DF93CF9300D000D0CDB77B
:10146000DEB7DD24D3948091E1079091E20761E03B
:1014700070E00E94E01900915601063908F052C050
:101480008091DA07882309F44DC080917A00806446
:1014900080937A0080917A00886080937A0010921D
:1014A000DA076091DF077091E00780E090E00E942A
:1014B0001A2023E333E343E550E40E94A82020E010
:1014C00030E040E85AE30E94A8209B01AC01609301
:1014D0005001709351018093520190935301809178
:1014E000440190914501A0914601B0914701898343
:1014F0009A83AB83BC83CA01B9010E94A8209B01D7
:10150000AC0169817A818B819C810E94221F60934A
:1015100044017093450180934601909347010F5F0A
:101520000093560180915601863909F044C010920B
:10153000560160914401709145018091460190915E
:10154000470120E030E046E153E40E94861F9B0102
:10155000AC012093440130934501409346015093E0
:1015600047010E940F2160934801709349018093C5
:101570004A0190934B0120E030E04EE453E40E9496
:10158000861F20E030E04AE754E40E94A8206093E0
:101590004C0170934D0180934E0190934F0120E0D8
:1015A00030E048EC52E40E94A8200E94EE1F7093A5
:1015B00041016093400120914001309141018091AF
:1015C0000F01909110018217930718F4D0925501E2
:1015D00028988091E1079091E20760E070E040E098
:1015E00050E020E00E9435193ECF0FB6F8940F92DC
:1015F000009711F0FC0104C0E0915701F0915801EF
:101600000F900FBE86890895009711F0FC0104C069
:10161000E0915701F0915801868908958091590110
:101620008F5F8093590108950FB6F8940F9220911F
:101630005C0130915D010F900FBEC90108952091AA
:101640005C0130915D01C9010895809163010895A5
:10165000009721F480915701909158019C01275ED9
:101660003F4FC901089580915901882321F081E0FD
:1016700080935B01089510925B0120915A0199E0DB
:1016800001C02150299FD0011124A759BE4F8C9130
:101690008823B9F31196ED91FC9112970280F381A2
:1016A000E02D1296FC93EE931197CD010396E81767
:1016B000F90731F48281938112969C938E9311974E
:1016C0001196ED91FC911297868197819093580124
:1016D0008093570120935A010895FC010FB6F894A6
:1016E0000F9280916001808380915C0190915D01F7
:1016F000928381830F900FBE0895FC018091600159
:10170000808380915C0190915D0192838183089533
:10171000DC01FB010FB6F8940F9260915C017091AF
:101720005D0111964D915C911297208131818FEF6F
:101730002F3F3807E9F0909160018C91981719F0CC
:1017400064177507B8F4CB01841B950B82179307B8
:1017500088F4281B390B31832083809160018C939E
:1017600080915C0190915D0112969C938E931197EC
:1017700080E003C01182108281E00F900FBE0895B7
:1017800081E080935B0108952091570130915801C9
:10179000C9010895E0915701F0915801848595851C
:1017A000A0915701B0915801E0915701F091580173
:1017B000468924E030E0241B31091D963C932E938A
:1017C0001C9708958091570190915801892B39F009
:1017D000E0915701F091580182A18F5F82A320917F
:1017E000570130915801C9010895009721F4809163
:1017F0005701909158010FB6F8940F92FC01E60F33
:10180000F11D87A1823011F080E002C017A281E0B3
:101810000F900FBE0895EF92FF920F931F937901DF
:101820008A01009721F480915701909158010FB6D9
:10183000F8940F92E62FF0E0EE0FFF1FEE0FFF1F60
:10184000E80FF91F23A134A145A156A183A194A1BA
:10185000A5A1B6A1E094F094009510958E219F214A
:10186000A023B12383A394A3A5A3B6A30F900FBE77
:10187000B901CA011F910F91FF90EF900895EF9267
:10188000FF920F931F93CF93DF93EC01E62F7A0122
:10189000F0E0DC01AE0FBF1F97962C91979782E086
:1018A00097968C93EE0FFF1FEE0FFF1FEC0FFD1F9F
:1018B00083A194A1A5A1B6A10196A11DB11D83A3E9
:1018C00094A3A5A3B6A3213089F58091590188235B
:1018D000A9F48E010E5F1F4FC8010E94B01B9E89A4
:1018E00080915A01891710F490935A0189E0989FCA
:1018F000C001112487599E4FB80105C0BE01645F25
:101900007F4F83EA91E00E945F1BE0915701F091C5
:1019100058019E898689891748F4E114F10419F069
:1019200081E0F701808381E080935B01DF91CF91BB
:101930001F910F91FF90EF900895CF92DF92EF9259
:10194000FF920F931F93CF93DF93EC01E114F10407
:1019500089F0E62FF0E0EE0FFF1FEE0FFF1FE80FFC
:10196000F91F83A194A1A5A1B6A1F701808391835A
:10197000A283B383A62FB0E0FE01EA0FFB1F67A18D
:1019800082E087A30230D1F0033018F40130C9F5AA
:1019900005C0033051F10430A1F523C0FD01EE0F65
:1019A000FF1FEE0FFF1FEC0FFD1F83A194A1A5A148
:1019B000B6A1822B932BA42BB52B0EC0FD01EE0FED
:1019C000FF1FEE0FFF1FEC0FFD1F83A194A1A5A128
:1019D000B6A10196A11DB11D83A394A3A5A3B6A38F
:1019E00010C0623011F480E041C0AA0FBB1FAA0FE3
:1019F000BB1FAC0FBD1F93962D933D934D935C93EE
:101A00009697613091F5809159018823A9F48E0150
:101A10000E5F1F4FC8010E94B01B9E8980915A0122
:101A2000891710F490935A0189E0989FC0011124FE
:101A300087599E4FB80105C0BE01645F7F4F83EA9E
:101A400091E00E945F1BE0915701F09158019E893F
:101A50008689891750F4C114D10419F081E0F60188
:101A6000808381E080935B0101C081E0DF91CF91B1
:101A70001F910F91FF90EF90DF90CF9008950F93FB
:101A80001F93CF93DF93EC010097B1F189A1681701
:101A900008F4682F2E89261779F18AA1813061F523
:101AA0006E8B8C859D8597FD06C084E090E0861B3B
:101AB00091099D878C8789E0289FC001112487594F
:101AC0009E4F2A853B8528173907B1F48E010E5F9A
:101AD0001F4FC8010E94B01B9E8980915A0189172F
:101AE00010F490935A0189E0989FC00111248759FE
:101AF0009E4FB8010E945F1BDF91CF911F910F9104
:101B000008950F931F93CF93DF93EC01009741F15A
:101B10002AA121502AA39E8989A1981709F122237D
:101B2000F9F48E010E5F1F4FC8010E94B01B29A15E
:101B30002E8B84E090E0821B91099D878C87809199
:101B40005A01821710F420935A0189E0289FC0019E
:101B5000112487599E4FB8010E945F1B81E001C08C
:101B600080E0DF91CF911F910F9108950F931F9304
:101B7000CF93DF93EC01009711F420E050C0E09187
:101B80005701F09158019E8986899817F0F58C8548
:101B90009D8597FD0BC0E0915701F0915801268972
:101BA00084E090E0821B91099D878C878E8929E0D3
:101BB000829FC001112487599E4F2A853B85281793
:101BC0003907E1F48E010E5F1F4FC8010E94B01B60
:101BD000E0915701F091580196899E8B80915A01AE
:101BE000891710F490935A0189E0989FC00111243D
:101BF00087599E4FB8010E945F1B10C0E0915701AA
:101C0000F091580186898E8B09C0E0915701F091BF
:101C1000580120E099A18689981708F421E0822FC5
:101C2000DF91CF911F910F9108950F931F93CF9341
:101C3000DF93FC01706871836083C681D7810E9445
:101C4000B01B8E010E5F1F4FC8010E94B01B9E8902
:101C500080915A01891710F490935A0189E0989F56
:101C6000C001112487599E4FB8010E945F1BE0916B
:101C70005701F09158019E898689891718F481E0EF
:101C800080935B01DF91CF911F910F9108950F9386
:101C90001F93CF93DF93DC011596ED91FC9116977E
:101CA000C681D7818E01045F1F4FC8010E94B01BFF
:101CB000809159018823A1F48E010E5F1F4FC80146
:101CC0000E94B01B9E8980915A01891710F490934D
:101CD0005A0189E0989FC001112487599E4F02C084
:101CE00083EA91E0B8010E945F1BE0915701F091F7
:101CF00058019E898689891710F080E003C081E031
:101D000080935B01DF91CF911F910F910895CF9246
:101D1000DF92EF92FF920F931F93CF93DF93809107
:101D20005901882309F0A4C000915C0110915D0164
:101D30000F5F1F4F10935D0100935C0101151105AA
:101D400061F520919F013091A0018091A1019091B6
:101D5000A2019093A00180939F013093A201209350
:101D6000A101809160018F5F80936001E0919F01EC
:101D7000F091A0018081882319F48FEF9FEF09C0B3
:101D8000E0919F01F091A0010580F681E02D808116
:101D9000918190935F0180935E0180915E019091AB
:101DA0005F010817190708F44BC0DD2499E0C92E1C
:101DB000E0919F01F091A0018081882319F48FEFB9
:101DC0009FEF0EC0E0919F01F091A0010580F68188
:101DD000E02DC681D7818A819B810817190728F4D5
:101DE00090935F0180935E012CC082E0E82EF12C7D
:101DF000EC0EFD1EC7010E94B01B8C899D89892BAA
:101E000021F0CE010C960E94B01B9E8980915A0150
:101E1000891710F490935A019C9DC0011124875991
:101E20009E4FB7010E945F1BE0915701F09158014E
:101E30009E898689981708F4BBCFDD24D394B8CF48
:101E4000DD24E0915701F0915801E68989E0E89F8F
:101E5000F0011124E759FE4F8081823010F0DD241B
:101E6000D39480915B01882369F0DD24D3940AC068
:101E7000809161019091620101969093620180933B
:101E80006101DD248D2DDF91CF911F910F91FF9086
:101E9000EF90DF90CF900895FF920F931F93CF9311
:101EA000DF93EC018A859B85855B9140A9F58C8940
:101EB0009D8921E0833A920779F1892B69F534C035
:101EC000E0915701F09158019E898689981710F486
:101ED000FF2405C081E080935B01FF24F3948E0111
:101EE0000E5F1F4FC8010E94B01B6E8980915A017E
:101EF000861710F460935A0189E0689FC00111248D
:101F000087599E4FB8010E945F1B07C02C9683EA39
:101F100091E0BE010E945F1BFF248F2DDF91CF91C6
:101F20001F910F91FF90089580915901882341F2EC
:101F3000EDCFEF92FF920F931F93CF93DF93EC01BE
:101F40000FB6F8940F92E114F10489F0E62FF0E057
:101F5000EE0FFF1FEE0FFF1FE80FF91F83A194A1E3
:101F6000A5A1B6A1F70180839183A283B383A62F95
:101F7000B0E0FE01EA0FFB1F67A182E087A30230F9
:101F8000D1F0033018F40130C9F505C0033051F128
:101F90000430A1F523C0FD01EE0FFF1FEE0FFF1F60
:101FA000EC0FFD1F83A194A1A5A1B6A1822B932BB9
:101FB000A42BB52B0EC0FD01EE0FFF1FEE0FFF1F70
:101FC000EC0FFD1F83A194A1A5A1B6A10196A11DAF
:101FD000B11D83A394A3A5A3B6A310C0623011F4CE
:101FE00080E02FC0AA0FBB1FAA0FBB1FAC0FBD1FE5
:101FF00093962D933D934D935C939697613001F5A5
:102000008E010E5F1F4FC8010E94B01B9E898091F8
:102010005A01891710F490935A0189E0989FC001E2
:10202000112487599E4FB8010E945F1BE091570110
:10203000F09158019E898689891710F40E94C81E64
:1020400081E00F900FBEDF91CF911F910F91FF9014
:10205000EF900895EF92FF920F931F93CF93DF932A
:102060000FB6F8940F9280915901815080935901D5
:1020700080915901882309F06DC080916301882304
:1020800009F468C0C0E0D0E009E0E02EFF24F3943A
:1020900029C0E091A801F091A901C681D781CE01A4
:1020A0000C960E94B01B8E010E5F1F4FC8010E944C
:1020B000B01B9E8980915A01891710F490935A01A0
:1020C0009E9DC001112487599E4FB8010E945F1B3D
:1020D000E0915701F09158019E898689981710F078
:1020E000F0925B018091A301882399F6CD2BB9F082
:1020F000E0919F01F091A0018081882319F48FEF76
:102100009FEF09C0E0919F01F091A0010580F68149
:10211000E02D8081918190935F0180935E01C09159
:102120006101D0916201209769F011E00E94870E51
:10213000882311F010935B012197C1F7109262017F
:102140001092610180915B01882321F00E94C81EDA
:1021500081E001C080E00F900FBEDF91CF911F9111
:102160000F91FF90EF900895209159012F5F2093D8
:1021700059012091610130916201280F391F30937C
:102180006201209361010E942A1008950F931F930A
:10219000CF93DF93EC018091570190915801C817BC
:1021A000D907B9F12097A9F10FB6F8940F928A8553
:1021B0009B85855B9140F1F48C899D8921E0833A70
:1021C0009207C1F0892BB1F418C090935A0189E0AD
:1021D000989FC001112487599E4FB8010E945F1B30
:1021E000E0915701F09158019E898689981710F067
:1021F0000E94C81E0F900FBE0CC08E010E5F1F4FB5
:10220000C8010E94B01B9E8980915A018917E8F28B
:10221000DECFDF91CF911F910F9108950F931F9300
:10222000CF93DF930FB6F8940F92009711F0EC0163
:1022300004C0C0915701D09158018E010E5F1F4F0D
:10224000C8010E94B01B8C899D89892B21F0CE0189
:102250000C960E94B01B85EB91E0B8010E945F1BB9
:102260008FA1813009F41FA20F900FBE80916401ED
:102270008823E1F00FB6F8940F92E0919F01F0915E
:10228000A0018081882319F48FEF9FEF09C0E091AE
:102290009F01F091A0010580F681E02D8081918160
:1022A00090935F0180935E010F900FBE8091570164
:1022B00090915801C817D907A1F48091640188232F
:1022C00019F00E94C81E0DC09091B5018091630164
:1022D000981729F4109258011092570102C00E94D9
:1022E000330BDF91CF911F910F910895FF920F93C0
:1022F0001F93CF93DF93643008F063E00FB6F89438
:102300000F92009711F0EC0104C0C0915701D091D9
:10231000580129A1261709F452C0261790F480917C
:10232000570190915801C817D90711F4FF2413C021
:10233000E0915701F0915801FF248689681758F001
:1023400008C08091570190915801FF24C817D90700
:1023500011F4FF24F3943E89231709F46E8B69A3CB
:102360008C859D8597FD06C084E090E0861B9109D1
:102370009D878C8789E0389FC001112487599E4F23
:102380002A853B8528173907B1F48E010E5F1F4F50
:10239000C8010E94B01B9E8980915A01891710F4D0
:1023A00090935A0189E0989FC001112487599E4F4C
:1023B000B8010E945F1BFF2011F00E94C81E0F9001
:1023C0000FBEDF91CF911F910F91FF900895FF9263
:1023D0000F931F93CF93DF93EC01F62E00915C01D6
:1023E00010915D01809157019091580102960E94D1
:1023F000B01B8FEFCF3FD80769F4FF2059F06091F1
:102400005701709158016E5F7F4F85EB91E00E94FC
:102410005F1B2FC0C00FD11FE0915701F0915801F1
:10242000D383C283C017D10768F48091A101909132
:10243000A20160915701709158016E5F7F4F0E9419
:102440007E1B17C080919F019091A0016091570160
:10245000709158016E5F7F4F0E947E1B80915E01DC
:1024600090915F01C817D90720F4D0935F01C09302
:102470005E01DF91CF911F910F91FF9008958F9290
:102480009F92AF92BF92CF92DF92EF92FF920F9303
:102490001F93CF93DF9348015901E7010FB6F894DA
:1024A0000F92E0915701F0915801E82EFF24EE0DB4
:1024B000FF1D87A1823061F1E0915701F091580131
:1024C000C701880F991F880F991FE80FF91F83A173
:1024D00094A1A5A1B6A140955095609570958423CF
:1024E0009523A623B72383A394A3A5A3B6A3E09122
:1024F0005701F0915801EE0DFF1D81E087A3C11433
:10250000D10431F0C60161E00E94E7110E94C81EAB
:102510000F900FBE0FB6F8940F92209799F0E091AC
:102520005701F0915801C701880F991F880F991F13
:10253000E80FF91F83A194A1A5A1B6A1888399836F
:10254000AA83BB83E0915701F0915801EE0DFF1D66
:1025500087A1823011F080E01CC0E0915701F0911A
:102560005801C701880F991F880F991FE80FF91F9D
:1025700083A194A1A5A1B6A180949094A094B094B5
:1025800088219921AA21BB2183A394A3A5A3B6A343
:1025900081E0E0915701F0915801EE0DFF1D17A267
:1025A0000F900FBEDF91CF911F910F91FF90EF9091
:1025B000DF90CF90BF90AF909F908F9008951F9322
:1025C000CF93DF93162F0FB6F8940F92E091570137
:1025D000F0915801C82FD0E0CE01880F991F880FC5
:1025E000991FE80FF91F83A194A1A5A1B6A1009797
:1025F000A105B10589F4E0915701F0915801EC0F64
:10260000FD1F81E087A34115510531F0CA0161E04A
:102610000E94E7110E94C81E0F900FBE0FB6F894DB
:102620000F92E0915701F0915801CE01880F991F48
:10263000880F991FE80FF91F23A134A145A156A1C6
:102640002115310541055105F9F0112359F0E091AB
:102650005701F0915801E80FF91F13A214A215A217
:1026600016A212C0E0915701F0915801215030405C
:1026700040405040E80FF91F23A334A345A356A3BD
:102680002F5F3F4F4F4F5F4FE0915701F09158013F
:10269000EC0FFD1F17A20F900FBEB901CA01DF9109
:1026A000CF911F9108950F931F938A01E0915701D5
:1026B000F091580170687587648760915701709137
:1026C0005801645F7F4F0E945F1BC80161E00E9458
:1026D000E7111F910F9108959C01009769F0809177
:1026E00059018F5F80935901C90160E00E94E71191
:1026F0000E942A10882311F40E94C81E08951F9377
:10270000FC01809159018F5F8093590180915C0198
:1027100090915D0120813181620F731F82179307B1
:1027200028F46217730728F010E008C062177307D7
:1027300020F010E08617970708F411E0718360839A
:10274000112339F09B01281B390BC90160E00E945D
:10275000E7110E942A10882311F40E94C81E812FBD
:102760001F9108950F931F938B01609157017091F2
:102770005801645F7F4F0E947E1BC80161E00E9488
:10278000E7111F910F910895F894109264010E942F
:10279000671E08950F931F9321C00FB6F8940F92F0
:1027A000E091B101F091B20106811781C801029652
:1027B0000E94B01B809163018150809363018091DE
:1027C00067018150809367010F900FBEF8018789E0
:1027D000908D0E94A11DC8010E94A11D80916701DA
:1027E0008823D9F6809169018230C0F30E94C81E07
:1027F000F5CF0F931F93CF93DF930FB6F8940F92FB
:10280000009711F0EC0104C0C0915701D09158011C
:102810008E010E5F1F4FC8010E94B01B8C899D89DD
:10282000892B21F0CE010C960E94B01B809168018B
:102830008F5F809368018091570190915801C8176C
:10284000D90759F48CEA91E0B8010E945F1B80918E
:1028500067018F5F809367011CC080916301815085
:1028600080936301E0919F01F091A0018081882312
:1028700019F48FEF9FEF09C0E0919F01F091A00143
:102880000580F681E02D8081918190935F01809396
:102890005E010F900FBE8091570190915801C817AB
:1028A000D90739F08F89988D0E94A11DCE010E9411
:1028B000A11D80916401882349F080915701909176
:1028C0005801C817D90711F40E94C81EDF91CF9193
:1028D0001F910F9108954F925F926F927F928F9206
:1028E0009F92AF92BF92CF92DF92EF92FF920F939F
:1028F0001F93CF93DF932C015B016A0139014701DC
:10290000CA010E94B11D7C01009781F088E290E02D
:102910000E94B11DEC01009731F0F88EEF8AA114EE
:10292000B10431F416C0C7010E94A11D8FEFC4C0CD
:10293000F501DC0190E0808159968C935997808154
:10294000882329F09F5F319611969830A1F718A23D
:1029500001C0198E043008F003E00E8B09A31AA2FF
:1029600042E0A42EB12CAC0EBD1EC5010E945B1B23
:10297000CE010C960E945B1BD987C88784E090E04B
:10298000801B91099D878C87DB8BCA8B1BA21CA2A5
:102990001DA21EA21FA20894C108D108C7018C0D58
:1029A0009D1DB201A3010E94E51D998388838114B6
:1029B000910419F0F401D183C0830FB6F8940F92FB
:1029C000809163018F5F80936301809157019091A3
:1029D0005801892BD1F5D0935801C09357018091AC
:1029E0006301813009F041C089E691E00E944B1BF0
:1029F00082E791E00E944B1B8BE791E00E944B1B0A
:102A000084E891E00E944B1B3DE8E32E31E0F32E79
:102A1000C7010E944B1B06E911E0C8010E944B1B35
:102A200083EA91E00E944B1B8CEA91E00E944B1BD1
:102A300085EB91E00E944B1BF092A001E0929F0178
:102A40001093A2010093A10110C08091640188231A
:102A500061F4E0915701F091580196898E898917A8
:102A600020F0D0935801C0935701809168018F5F87
:102A7000809368019E8980915A01891710F4909380
:102A80005A018E8929E0829FC001112487599E4FE7
:102A9000B5010E945F1B0F900FBE809164018823D7
:102AA00051F0E0915701F091580196898E8998175D
:102AB00010F40E94C81E81E0DF91CF911F910F9109
:102AC000FF90EF90DF90CF90BF90AF909F908F904E
:102AD0007F906F905F904F900895EF92FF920F93C9
:102AE0008AEC93E165E271E045E550E020E030E0FA
:102AF00000E0E5E6EE2EE1E0FE2E0E946B14813050
:102B000081F4F8948FEF9FEF90935F0180935E01C3
:102B100081E08093640110925D0110925C010E943B
:102B20002D1E80912A010F91FF90EF900895FC01D6
:102B30000FB6F8940F92828D0F900FBE0895FC018E
:102B40000FB6F8940F92928D0F900FBE838D891B54
:102B50000895FC01828D0895FC01828D90E0882308
:102B600009F491E0892F0895FC01928D20E0838D76
:102B7000981709F421E0822F0895FC01562FA72F02
:102B8000248D2223B9F086819781820F911D97832E
:102B90008683248135818217930720F0808191817B
:102BA00097838683448D66817781852F9A2F50E0A5
:102BB0000E94762108950F931F93CF93DF93EC012A
:102BC0008A8D882341F00E811F81CE010E94BD15A0
:102BD0001F830E8381E0DF91CF911F910F910895A4
:102BE0000F931F93CF93DF93EC01FB018A018A8D32
:102BF000882361F18C8D2E813F81280F311D3F8309
:102C00002E838C819D812817390720F08881998136
:102C10009F838E838A8D81508A8F4C8D6E817F81B8
:102C2000CF0150E00E947621F8018081882369F469
:102C30008885882351F0CE0108960E94DB1B8823EB
:102C400021F081E0F801808301C081E0DF91CF9124
:102C50001F910F9108950F931F93CF93DF93EC0172
:102C6000042F1A8D4C8D442361F488819981892B1E
:102C700009F03FC08C819D810E94810D1D821C82C4
:102C800039C00023B1F48A819B8150E00E947621F3
:102C90008C8D2A813B81280F311D3B832A838C81B7
:102CA0009D812817390728F1888199819B838A8320
:102CB00020C08E819F8150E00E9476218C8D90E013
:102CC00044275527481B590B8E819F81840F951FE0
:102CD0009F838E83288139818217930730F48C81FA
:102CE0009D81840F951F9F838E83023011F41111F3
:102CF000115080E01F5F1A8FDF91CF911F910F91CC
:102D000008951F93CF93DF93EC01142F9A8D8B8D31
:102D1000981788F4CE0140E00E942B16112359F435
:102D20008989882341F0CE0141960E94DB1B482F00
:102D3000811141E0142F812FDF91CF911F910895D0
:102D4000CF93DF93EC01FB01F8948A8D882371F413
:102D50004115510541F06196CA01BE010E94EA1C6D
:102D600078948CEF2FC0789480E02CC07894F894FD
:102D70008A8D882331F18C8D2E813F81280F311D62
:102D80003F832E838C819D812817390720F088810D
:102D900099819F838E838A8D81508A8F4C8D6E811D
:102DA0007F81CF0150E00E9476218885882341F001
:102DB000CE0108960E94DB1B882311F08BEF01C027
:102DC00081E07894DF91CF910895CF93DF93EC0168
:102DD000F8940FB6F8940F928A8D9B8D0F900FBECA
:102DE000891771F44115510541F02896CA01BE01B9
:102DF0000E94EA1C78948CEF1BC0789480E018C085
:102E00007894F8948A8D891710F080E010C0CE0174
:102E100040E00E942B168989882341F0CE0141961B
:102E20000E94DB1B882311F08BEF01C081E07894B6
:102E3000DF91CF9108950E94A11D0895EF92FF9216
:102E40000F931F93CF93DF93EC017A011A8D112317
:102E500011F480E01AC00D8D0E94BD1511501A8F1B
:102E60000F3F81F48885882379F0CE0108960E946F
:102E7000470E882349F0E114F10431F081E0F701B5
:102E8000808303C00F5F0D8F81E0DF91CF911F9191
:102E90000F91FF90EF900895CF93DF93FC01EB012A
:102EA000928D838D981710F080E016C0868D9F5FFD
:102EB000928F8F3F71F48189882369F0CF01419609
:102EC0000E94470E882339F0209729F081E08883FB
:102ED00003C08F5F868F81E0DF91CF910895EF92DD
:102EE000FF921F93CF93DF93EC017A019A8D8B8D24
:102EF000981720F0223011F080E01BC01E8D8A8DC3
:102F0000CE01422F0E942B161F3F81F4898988230E
:102F100079F0CE0141960E94470E882349F0E114D2
:102F2000F10431F081E0F701808303C01F5F1E8F41
:102F300081E0DF91CF911F91FF90EF900895EF9284
:102F4000FF921F93CF93DF93EC010FB6F8940F928B
:102F50001E8D91E1E92EF12CEC0EFD1E0BC089892E
:102F6000882351F0C7010E94470E882311F00E9468
:102F7000C00B115011169CF38FEF8E8F0F900FBE68
:102F80000FB6F8940F921D8D88E0E82EF12CEC0E10
:102F9000FD1E0BC08885882351F0C7010E94470E93
:102FA000882311F00E94C00B115011169CF38FEF73
:102FB0008D8F0F900FBEDF91CF911F91FF90EF90FB
:102FC00008958F929F92AF92BF92CF92DF92EF922D
:102FD000FF920F931F93DF93CF9300D000D00F92F7
:102FE000CDB7DEB77C015B015D834C8341E1C42E2C
:102FF000D12CC80ED91E20E08E010F5F1F4F34E088
:10300000832E912C8C0E9D1E01C021E00FB6F894EA
:103010000F92F701828D8823B9F006811781C701CD
:10302000B5010E94BD15F7011783068381898823A6
:1030300039F0C6010E94470E882311F00E94C81E75
:103040000F900FBE81E054C08C819D81892B21F4AB
:103050000F900FBE80E04CC0222319F4C8010E94DB
:103060007D0B0F900FBE0E940E0B0FB6F8940F92BF
:10307000F701858D8F3F09F4158EF701868D8F3FFF
:1030800009F4168E0F900FBEC801B4010E94880B80
:103090008823F9F40FB6F8940F92F701828D0F9000
:1030A0000FBE882381F46C817D81C6010E94B2131A
:1030B000C7010E949F170E942A10882309F0A5CFFC
:1030C0000E94C81EA2CFC7010E949F170E942A100B
:1030D0009CCFC7010E949F170E942A100FB6F89438
:1030E0000F92F701828D0F900FBE882309F08DCFCC
:1030F0000F900F900F900F900F90CF91DF911F9135
:103100000F91FF90EF90DF90CF90BF90AF909F9086
:103110008F9008956F927F928F929F92AF92BF92FD
:10312000CF92DF92FF920F931F93DF93CF9300D044
:1031300000D00F92CDB7DEB78C015B015D834C836D
:1031400061E1C62ED12CC80ED91E20E04E01089494
:10315000811C911C54E0652E712C6C0E7D1E01C0EB
:1031600021E00FB6F8940F92F801F28CFF20B1F035
:10317000C801B5010E94BD15FA94F801F28E808550
:10318000882341F0C80108960E94470E882311F059
:103190000E94C81E0F900FBE81E054C08C819D819B
:1031A000892B21F40F900FBE80E04CC0222319F42C
:1031B000C4010E947D0B0F900FBE0E940E0B0FB634
:1031C000F8940F92F801858D8F3F09F4158EF80160
:1031D000868D8F3F09F4168E0F900FBEC401B30188
:1031E0000E94880B8823F9F40FB6F8940F92F80127
:1031F000828D0F900FBE882381F46C817D81C60182
:103200000E94B213C8010E949F170E942A108823AF
:1032100009F0A6CF0E94C81EA3CFC8010E949F1725
:103220000E942A109DCFC8010E949F170E942A1059
:103230000FB6F8940F92F801828D0F900FBE88237D
:1032400009F08ECF0F900F900F900F900F90CF91AD
:10325000DF911F910F91FF90DF90CF90BF90AF90C3
:103260009F908F907F906F9008956F927F929F9222
:10327000AF92BF92CF92DF92EF92FF920F931F9384
:10328000DF93CF9300D000D00F92CDB7DEB78C0183
:103290006B015D834C83922EE8E0EE2EF12CE80E5C
:1032A000F91E20E05E010894A11CB11C74E0672E99
:1032B000712C6C0E7D1E01C021E00FB6F8940F92A8
:1032C000F801928D838D981718F0F2E09F16C9F4DB
:1032D000C801B601492D0E942B16982FF80181894B
:1032E000882339F0C80141960E94470E882329F0AF
:1032F00002C0992311F00E94C81E0F900FBE81E0FA
:103300004CC08C819D81892B19F40F900FBE44C055
:10331000222319F4C5010E947D0B0F900FBE0E945D
:103320000E0B0FB6F8940F92F801858D8F3F09F4BC
:10333000158EF801868D8F3F09F4168E0F900FBE03
:10334000C501B3010E94880B882309F50FB6F894D4
:103350000F92F801928D0F900FBEF801838D981790
:1033600081F46C817D81C7010E94B213C8010E9463
:103370009F170E942A10882309F09ECF0E94C81E22
:103380009BCFC8010E949F170E942A1095CFC801A9
:103390000E949F170E942A1080E00F900F900F90BC
:1033A0000F900F90CF91DF911F910F91FF90EF90B1
:1033B000DF90CF90BF90AF909F907F906F900895D7
:1033C0008F929F92AF92BF92DF92EF92FF920F93F4
:1033D0001F93DF93CF9300D000D00F92CDB7DEB70D
:1033E0008C017D836C83A1E1EA2EF12CE80EF91E9D
:1033F00020E0DD245E010894A11CB11CF4E08F2EB6
:10340000912C8C0E9D1E01C021E00FB6F8940F92F6
:10341000D8015A968C915A978823F1F081505A9688
:103420008C935A978D919C91892B29F40E94E20BE1
:10343000F80195838483D80118968C91882341F0F4
:10344000C80108960E94470E882311F00E94C81EEA
:103450000F900FBE81E082C08C819D81892B19F471
:103460000F900FBE7AC0222319F4C5010E947D0B74
:103470000F900FBE0E940E0B0FB6F8940F92F8013A
:10348000858D8F3F09F4158ED8015E968C915E97DD
:103490008F3F11F45E961C920F900FBEC501B401D0
:1034A0000E94880B882379F50FB6F8940F92F801E3
:1034B000828D0F900FBE882301F5D8018D919C91CC
:1034C000892B59F40FB6F8940F92F80184819581F5
:1034D0000E94B60DD82E0F900FBE6C817D81C70162
:1034E0000E94B213C8010E949F170E942A108823CD
:1034F00009F08ACF0E94C81E87CFC8010E949F177B
:103500000E942A1081CFC8010E949F170E942A1092
:103510000FB6F8940F92D8015A968C910F900FBE67
:10352000882309F071CFDD20C9F00FB6F8940F920F
:10353000F8018189882311F460E008C0D80156960B
:10354000ED91FC91579764E08081681BF8018481BC
:1035500095810E943F0D0F900FBE80E00F900F905D
:103560000F900F900F90CF91DF911F910F91FF90CF
:10357000EF90DF90BF90AF909F908F900895CF9382
:10358000DF93EC010FB6F8940F92EC8D2B8DE29F38
:10359000C001112448815981840F951F9D838C831C
:1035A0001A8E5B834A8330E021503040F0E02E9F3A
:1035B000C0012F9F900D3E9F900D1124480F591F61
:1035C0005F834E838FEF8D8F8E8F662361F48885A6
:1035D000882389F0CE0108960E94470E882359F06F
:1035E0000E94C81E08C0CE0108960E944B1BCE0147
:1035F00041960E944B1B0F900FBE81E0DF91CF914F
:1036000008950F931F93CF93DF93082F162F689F72
:10361000C00111244F960E94B11DEC01009771F07A
:10362000112319F49983888303C04F969983888363
:103630000B8F1C8FCE0161E00E94BF1ACE01DF917B
:10364000CF911F910F9108951F93162F60E042E0D4
:103650000E94011BFC01009709F0128FCF011F91FE
:103660000895CF93DF93482F81E060E00E94011B13
:10367000EC01009761F01D821C82198218821E8263
:1036800060E070E040E050E020E00E943519CE019B
:10369000DF91CF910895FC019C012D5F3F4F328354
:1036A00021838FEF9FEF9483838336832583308735
:1036B000278310820895FC01118610860895AC01BD
:1036C000FC01A181B281FB01B383A28314968D9189
:1036D0009C911597958384831496ED91FC91159791
:1036E0007383628315967C936E931497FB015187C5
:1036F0004087FA0180818F5F80830895CF93DF93A5
:103700009C01EB01488159818FEF4F3F580721F40D
:10371000F901A781B0850DC0D90113961296ED91DC
:10372000FC911397808191814817590710F0DF01B0
:10373000F5CF1296ED91FC911397FB83EA83D58325
:10374000C483BD83AC831396DC93CE9312973987E1
:103750002887F90180818F5F8083DF91CF91089561
:10376000CF93DF93DC011896CD91DC9119971296D7
:103770004D915C91139714968D919C911597FA0138
:103780009583848314962D913C911597F901538369
:10379000428389819A818A179B0711F43A8329838E
:1037A00019961C921E92189788818150888388816F
:1037B000DF91CF910895EF92FF920F931F93DC0159
:1037C0001596ED91FC911697E680F7808701045FCE
:1037D0001F4FC8010E94B01B8FEE91E0B8010E94FC
:1037E0005F1B20E0E091BE01F091BF01D70156962A
:1037F0009C918689981708F021E0822F1F910F91E4
:10380000FF90EF900895FF920F931F93CF93DF9354
:103810008091C0019091C101892B19F5D5C0F89410
:10382000E091F401F091F50106811781C8010C9631
:103830000E94B01B7894E8012296CE010E94B01B32
:10384000F80196898091C201891710F49093C20102
:103850009F9DC001112485539E4FBE010E945F1B96
:1038600002C099E0F92E8091EF018823C1F60E94F1
:10387000140B2091C3013091C401821B930B9093D0
:10388000C6018093C50189E0F82E53C0019690933C
:10389000C8018093C701215030403093C601209366
:1038A000C501892B09F03EC02091C0013091C101B2
:1038B0008091C9019091CA019093C1018093C00188
:1038C0003093CA012093C9012DC00580F681E02DF7
:1038D000C681D7812091C7013091C8018A819B811F
:1038E0002817390730F1F8948E010E5F1F4FC80179
:1038F0000E94B01B8C899D89892B21F0CE010C96EA
:103900000E94B01B78949E898091C201891710F49F
:103910009093C2019F9DC001112485539E4FB80111
:103920000E945F1BE091C001F091C101808188235A
:1039300061F62091C5013091C6018091C701909137
:10394000C8012115310509F0A1CF9093C4018093DE
:10395000C3019091C20129E006C0992319F4109285
:10396000C20132C09150929FD0011124A553BE4F85
:103970008C91882391F39093C2011196ED91FC9163
:1039800012970280F381E02D1296FC93EE9311972B
:10399000CD010396E817F90731F4828193811296DD
:1039A0009C938E9311971196ED91FC91129706803E
:1039B000F781E02DF093BF01E093BE0120813181BA
:1039C000CF016789F9010995DF91CF911F910F917F
:1039D000FF9008950F931F93CF93DF93EB01009116
:1039E000C7011091C801080F191F8091BE01909165
:1039F000BF0102960E94B01BE091BE01F091BF0191
:103A0000138302838091C7019091C801BF016E5F4B
:103A10007F4F0817190728F48091C9019091CA01B6
:103A200004C08091C0019091C1010E947E1B20972B
:103A300049F06091BE017091BF01645F7F4FCE017C
:103A40000E947E1BDF91CF911F910F910895AF923D
:103A5000BF92CF92DF92EF92FF920F931F93CF937B
:103A6000DF936C01B62EA42E8AE190E00E94B11D76
:103A7000EC01009711F48FEF59C08091BE01909135
:103A8000BF01892B21F5D093BF01C093BE018BEC00
:103A900091E00E944B1B84ED91E00E944B1B2DEDA9
:103AA000E22E21E0F22EC7010E944B1B06EE11E030
:103AB000C8010E944B1B8FEE91E00E944B1BF092BD
:103AC000C101E092C0011093CA010093C901EB2C1F
:103AD000BB2011F0EE24E394198E188EEE8AAF8A83
:103AE000FE01C192D1928F01CF010E945B1BCE01DA
:103AF0000C960E945B1BD987C887DB8BCA8B82E040
:103B000090E08E1991099D878C879E898091C201D2
:103B1000891710F49093C20189E0989FC001112485
:103B200085539E4FB8010E945F1B81E0DF91CF91CA
:103B30001F910F91FF90EF90DF90CF90BF90AF90CB
:103B4000089508951092F9011092F80108952BED4F
:103B500035E08091F8019091F901281B390BC901DA
:103B60000895CF93DF93EC010E940E0B8091FA0130
:103B70009091FB01892B31F48DEF91E09093FB0143
:103B80008093FA012097C9F02091F8013091F90152
:103B9000CE01820F931F45E08B3D940770F42817E8
:103BA000390758F4C091FA01D091FB01C20FD31F1D
:103BB0009093F9018093F80102C0C0E0D0E00E9428
:103BC0002A10CE01DF91CF910895FC0191E19083FD
:103BD00022E2229383E3829362937293129280E8AB
:103BE0008293129282E0829383E0829384E08293B4
:103BF00085E0829386E0829387E0829388E08293D7
:103C000089E0829380E18293929382E1829383E1BF
:103C1000829384E1829385E1829386E1829387E1B6
:103C2000829388E1829389E1829380E2829381E2A8
:103C30008293229383E282934293529386E2829309
:103C400087E2829388E2829389E2829380E382937F
:103C500081E382933197CF0108951092890085EA1C
:103C600080938800109280008BE08093810082E036
:103C700080936F00A0915701B0915801CD91CDBFB5
:103C8000DD91DEBFFF91EF91DF91CF91BF91AF91B9
:103C90009F918F917F916F915F914F913F912F9164
:103CA0001F910F91FF90EF90DF90CF90BF90AF905A
:103CB0009F908F907F906F905F904F903F902F904C
:103CC0001F900F900FBE0F90089581E00895089502
:103CD0000F920FB6F8940F921F9211242F923F92D9
:103CE0004F925F926F927F928F929F92AF92BF920C
:103CF000CF92DF92EF92FF920F931F932F933F93F8
:103D00004F935F936F937F938F939F93AF93BF93E3
:103D1000CF93DF93EF93FF93A0915701B091580198
:103D20000DB60D920EB60D920E94870E882311F0EB
:103D30000E94330BA0915701B0915801CD91CDBF96
:103D4000DD91DEBFFF91EF91DF91CF91BF91AF91F8
:103D50009F918F917F916F915F914F913F912F91A3
:103D60001F910F91FF90EF90DF90CF90BF90AF9099
:103D70009F908F907F906F905F904F903F902F908B
:103D80001F900F900FBE0F9008950E94681E189507
:103D90000F920FB6F8940F921F9211242F923F9218
:103DA0004F925F926F927F928F929F92AF92BF924B
:103DB000CF92DF92EF92FF920F931F932F933F9337
:103DC0004F935F936F937F938F939F93AF93BF9323
:103DD000CF93DF93EF93FF93A0915701B0915801D8
:103DE0000DB60D920EB60D920E94330BA0915701A5
:103DF000B0915801CD91CDBFDD91DEBFFF91EF9124
:103E0000DF91CF91BF91AF919F918F917F916F91F2
:103E10005F914F913F912F911F910F91FF90EF90E4
:103E2000DF90CF90BF90AF909F908F907F906F90DA
:103E30005F904F903F902F901F900F900FBE0F906C
:103E400008955058BB27AA270ED048C139D130F069
:103E50003ED120F031F49F3F11F41EF42EC10EF438
:103E6000E095E7FB24C1E92F4AD180F3BA17620736
:103E700073078407950718F071F49EF562C10EF47C
:103E8000E0950B2EBA2FA02D0B01B90190010C016A
:103E9000CA01A0011124FF27591B99F0593F50F482
:103EA000503E68F11A16F040A22F232F342F4427DA
:103EB000585FF3CF469537952795A795F0405395D2
:103EC000C9F77EF41F16BA0B620B730B840BBAF0A2
:103ED0009150A1F0FF0FBB1F661F771F881FC2F70D
:103EE0000EC0BA0F621F731F841F48F48795779521
:103EF0006795B795F7959E3F08F0B3CF9395880FD8
:103F000008F09927EE0F9795879508950CD0E6C095
:103F1000DED040F0D5D030F021F45F3F19F0C7C0BB
:103F2000511110C1CAC0EBD098F39923C9F355239E
:103F3000B1F3951B550BBB27AA276217730784079C
:103F400038F09F5F5F4F220F331F441FAA1FA9F352
:103F500033D00E2E3AF0E0E830D091505040E69544
:103F6000001CCAF729D0FE2F27D0660F771F881FA5
:103F7000BB1F261737074807AB07B0E809F0BB0B94
:103F8000802DBF01FF2793585F4F2AF09E3F5105B8
:103F900068F08DC0D7C05F3FECF3983EDCF38695A8
:103FA00077956795B795F7959F5FC9F7880F911D2E
:103FB0009695879597F90895E1E0660F771F881F1A
:103FC000BB1F621773078407BA0720F0621B730BCD
:103FD000840BBA0BEE1F88F7E095089598D088F00F
:103FE0009F5790F0B92F9927B751A0F0D1F0660FE5
:103FF000771F881F991F1AF0BA95C9F712C0B13000
:1040000081F09FD0B1E008959CC0672F782F88275A
:10401000B85F39F0B93FCCF3869577956795B3953E
:10402000D9F73EF490958095709561957F4F8F4FAD
:104030009F4F0895E89409C097FB3EF490958095B2
:10404000709561957F4F8F4F9F4F9923A9F0F92F5E
:1040500096E9BB279395F695879577956795B795DC
:10406000F111F8CFFAF4BB0F11F460FF1BC06F5FC2
:104070007F4F8F4F9F4F16C0882311F096E911C0D4
:10408000772321F09EE8872F762F05C0662371F0F5
:1040900096E8862F70E060E02AF09A95660F771F09
:1040A000881FDAF7880F9695879597F9089597F9FD
:1040B0009F6780E870E060E008959FEF80EC0895CE
:1040C00000240A94161617061806090608950024F7
:1040D0000A9412161306140605060895092E039471
:1040E000000C11F4882352F0BB0F40F4BF2B11F4E5
:1040F00060FF04C06F5F7F4F8F4F9F4F089557FD44
:104100009058440F551F59F05F3F71F04795880F45
:1041100097FB991F61F09F3F79F0879508951216DC
:1041200013061406551FF2CF4695F1DF08C0161688
:1041300017061806991FF1CF869571056105089439
:104140000895E894BB2766277727CB0197F9089550
:104150000BD0C4CFB5DF28F0BADF18F0952309F0F3
:10416000A6CFABCF1124EECFCADFA0F3959FD1F33A
:10417000950F50E0551F629FF001729FBB27F00D15
:10418000B11D639FAA27F00DB11DAA1F649F66276A
:10419000B00DA11D661F829F2227B00DA11D621FB9
:1041A000739FB00DA11D621F839FA00D611D221F73
:1041B000749F3327A00D611D231F849F600D211D57
:1041C000822F762F6A2F11249F5750408AF0E1F0FA
:1041D00088234AF0EE0FFF1FBB1F661F771F881F43
:1041E00091505040A9F79E3F510570F060CFAACF83
:1041F0005F3FECF3983EDCF3869577956795B7952E
:10420000F795E7959F5FC1F7FE2B880F911D969557
:10421000879597F9089511F40EF44FCF3EC077DFDC
:10422000D0F39923D9F3CEF39F57550B87FF43D093
:104230000024A0E640EA900180585695979528F40E
:10424000805C660F771F881F20F026173707480706
:1042500030F4621B730B840B202931294A2BA6955D
:1042600017940794202531254A2758F7660F771FA2
:10427000881F20F026173707480730F4620B730BAE
:10428000840B200D311D411DA09581F7B901842FAC
:104290009158880F9695879508959F3F31F09150DA
:1042A00020F4879577956795B795880F911D96951A
:1042B000879597F9089591505040660F771F881F92
:1042C000D2F70895AA1BBB1B51E107C0AA1FBB1F51
:1042D000A617B70710F0A61BB70B881F991F5A9592
:1042E000A9F780959095BC01CD010895FB01DC01F3
:1042F00002C001900D9241505040D8F70895F894B3
:02430000FFCFED
:10430200414443004C434400427574746F6E006430
:1043120000760088009A00AC00BE00D000E200F4F3
:0C432200000601180149444C450003004E
:00000001FF
